{
  "abi": [
    {
      "type": "constructor",
      "inputs": [],
      "stateMutability": "nonpayable"
    },
    {
      "type": "function",
      "name": "DEFAULT_ADMIN_ROLE",
      "inputs": [],
      "outputs": [
        {
          "name": "",
          "type": "bytes32",
          "internalType": "bytes32"
        }
      ],
      "stateMutability": "view"
    },
    {
      "type": "function",
      "name": "OPERATOR_ROLE",
      "inputs": [],
      "outputs": [
        {
          "name": "",
          "type": "bytes32",
          "internalType": "bytes32"
        }
      ],
      "stateMutability": "view"
    },
    {
      "type": "function",
      "name": "SUBSCRIBER_ROLE",
      "inputs": [],
      "outputs": [
        {
          "name": "",
          "type": "bytes32",
          "internalType": "bytes32"
        }
      ],
      "stateMutability": "view"
    },
    {
      "type": "function",
      "name": "addProviderAndKey",
      "inputs": [
        {
          "name": "newProvider",
          "type": "address",
          "internalType": "address"
        },
        {
          "name": "publicKey",
          "type": "bytes",
          "internalType": "bytes"
        }
      ],
      "outputs": [],
      "stateMutability": "nonpayable"
    },
    {
      "type": "function",
      "name": "addSubscriberAndKey",
      "inputs": [
        {
          "name": "newSubscriber",
          "type": "address",
          "internalType": "address"
        },
        {
          "name": "publicKey",
          "type": "bytes",
          "internalType": "bytes"
        }
      ],
      "outputs": [],
      "stateMutability": "nonpayable"
    },
    {
      "type": "function",
      "name": "getProviderKey",
      "inputs": [
        {
          "name": "providerIndex",
          "type": "uint256",
          "internalType": "uint256"
        }
      ],
      "outputs": [
        {
          "name": "publicKey",
          "type": "bytes",
          "internalType": "bytes"
        }
      ],
      "stateMutability": "view"
    },
    {
      "type": "function",
      "name": "getRoleAdmin",
      "inputs": [
        {
          "name": "role",
          "type": "bytes32",
          "internalType": "bytes32"
        }
      ],
      "outputs": [
        {
          "name": "",
          "type": "bytes32",
          "internalType": "bytes32"
        }
      ],
      "stateMutability": "view"
    },
    {
      "type": "function",
      "name": "getSubscriberKey",
      "inputs": [
        {
          "name": "subscriberIndex",
          "type": "uint256",
          "internalType": "uint256"
        }
      ],
      "outputs": [
        {
          "name": "publicKey",
          "type": "bytes",
          "internalType": "bytes"
        }
      ],
      "stateMutability": "view"
    },
    {
      "type": "function",
      "name": "grantRole",
      "inputs": [
        {
          "name": "role",
          "type": "bytes32",
          "internalType": "bytes32"
        },
        {
          "name": "account",
          "type": "address",
          "internalType": "address"
        }
      ],
      "outputs": [],
      "stateMutability": "nonpayable"
    },
    {
      "type": "function",
      "name": "hasRole",
      "inputs": [
        {
          "name": "role",
          "type": "bytes32",
          "internalType": "bytes32"
        },
        {
          "name": "account",
          "type": "address",
          "internalType": "address"
        }
      ],
      "outputs": [
        {
          "name": "",
          "type": "bool",
          "internalType": "bool"
        }
      ],
      "stateMutability": "view"
    },
    {
      "type": "function",
      "name": "isSubscriber",
      "inputs": [
        {
          "name": "subscriber",
          "type": "address",
          "internalType": "address"
        }
      ],
      "outputs": [
        {
          "name": "isSubscribed",
          "type": "bool",
          "internalType": "bool"
        }
      ],
      "stateMutability": "view"
    },
    {
      "type": "function",
      "name": "nextProviderId",
      "inputs": [],
      "outputs": [
        {
          "name": "",
          "type": "uint256",
          "internalType": "uint256"
        }
      ],
      "stateMutability": "view"
    },
    {
      "type": "function",
      "name": "nextSubscriberId",
      "inputs": [],
      "outputs": [
        {
          "name": "",
          "type": "uint256",
          "internalType": "uint256"
        }
      ],
      "stateMutability": "view"
    },
    {
      "type": "function",
      "name": "removeSubscriber",
      "inputs": [
        {
          "name": "subscriber",
          "type": "address",
          "internalType": "address"
        }
      ],
      "outputs": [],
      "stateMutability": "nonpayable"
    },
    {
      "type": "function",
      "name": "renounceRole",
      "inputs": [
        {
          "name": "role",
          "type": "bytes32",
          "internalType": "bytes32"
        },
        {
          "name": "callerConfirmation",
          "type": "address",
          "internalType": "address"
        }
      ],
      "outputs": [],
      "stateMutability": "nonpayable"
    },
    {
      "type": "function",
      "name": "revokeRole",
      "inputs": [
        {
          "name": "role",
          "type": "bytes32",
          "internalType": "bytes32"
        },
        {
          "name": "account",
          "type": "address",
          "internalType": "address"
        }
      ],
      "outputs": [],
      "stateMutability": "nonpayable"
    },
    {
      "type": "function",
      "name": "supportsInterface",
      "inputs": [
        {
          "name": "interfaceId",
          "type": "bytes4",
          "internalType": "bytes4"
        }
      ],
      "outputs": [
        {
          "name": "",
          "type": "bool",
          "internalType": "bool"
        }
      ],
      "stateMutability": "view"
    },
    {
      "type": "event",
      "name": "RoleAdminChanged",
      "inputs": [
        {
          "name": "role",
          "type": "bytes32",
          "indexed": true,
          "internalType": "bytes32"
        },
        {
          "name": "previousAdminRole",
          "type": "bytes32",
          "indexed": true,
          "internalType": "bytes32"
        },
        {
          "name": "newAdminRole",
          "type": "bytes32",
          "indexed": true,
          "internalType": "bytes32"
        }
      ],
      "anonymous": false
    },
    {
      "type": "event",
      "name": "RoleGranted",
      "inputs": [
        {
          "name": "role",
          "type": "bytes32",
          "indexed": true,
          "internalType": "bytes32"
        },
        {
          "name": "account",
          "type": "address",
          "indexed": true,
          "internalType": "address"
        },
        {
          "name": "sender",
          "type": "address",
          "indexed": true,
          "internalType": "address"
        }
      ],
      "anonymous": false
    },
    {
      "type": "event",
      "name": "RoleRevoked",
      "inputs": [
        {
          "name": "role",
          "type": "bytes32",
          "indexed": true,
          "internalType": "bytes32"
        },
        {
          "name": "account",
          "type": "address",
          "indexed": true,
          "internalType": "address"
        },
        {
          "name": "sender",
          "type": "address",
          "indexed": true,
          "internalType": "address"
        }
      ],
      "anonymous": false
    },
    {
      "type": "error",
      "name": "AccessControlBadConfirmation",
      "inputs": []
    },
    {
      "type": "error",
      "name": "AccessControlUnauthorizedAccount",
      "inputs": [
        {
          "name": "account",
          "type": "address",
          "internalType": "address"
        },
        {
          "name": "neededRole",
          "type": "bytes32",
          "internalType": "bytes32"
        }
      ]
    }
  ],
  "bytecode": {
    "object": "0x60806040526000600155600060025534801561001a57600080fd5b50610026600033610057565b506100517fb19546dff01e856fb3f010c267a7b1c60363cf8a4664e21cc89c26224620214e33610057565b50610103565b6000828152602081815260408083206001600160a01b038516845290915281205460ff166100f9576000838152602081815260408083206001600160a01b03861684529091529020805460ff191660011790556100b13390565b6001600160a01b0316826001600160a01b0316847f2f8788117e7eff1d82e926ec794901d17c78024a50270940304540a733656f0d60405160405180910390a45060016100fd565b5060005b92915050565b610d94806101126000396000f3fe608060405234801561001057600080fd5b506004361061011b5760003560e01c8063627c34ad116100b2578063b355112211610081578063d547741f11610066578063d547741f14610292578063de335053146102a5578063f5b541a6146102b857600080fd5b8063b355112214610258578063c4804ef01461027f57600080fd5b8063627c34ad146101f05780638d505f9e1461020357806391d148541461020c578063a217fddf1461025057600080fd5b80632f2ff15d116100ee5780632f2ff15d146101ae57806333887d8e146101c157806336568abe146101d457806351a8dbcf146101e757600080fd5b806301ffc9a7146101205780631ba6c4451461014857806320c30f081461015d578063248a9ca31461017d575b600080fd5b61013361012e3660046108f4565b6102df565b60405190151581526020015b60405180910390f35b61015b610156366004610995565b610378565b005b61017061016b366004610a75565b6103db565b60405161013f9190610a8e565b6101a061018b366004610a75565b60009081526020819052604090206001015490565b60405190815260200161013f565b61015b6101bc366004610afb565b61047d565b61015b6101cf366004610995565b6104a8565b61015b6101e2366004610afb565b610506565b6101a060025481565b61015b6101fe366004610b27565b61055f565b6101a060015481565b61013361021a366004610afb565b60009182526020828152604080842073ffffffffffffffffffffffffffffffffffffffff93909316845291905290205460ff1690565b6101a0600081565b6101a07f3f483399a73bbfbc7e47cea702709b2441abfc4e8152100709ca14556e32130381565b61013361028d366004610b27565b6105b3565b61015b6102a0366004610afb565b610600565b6101706102b3366004610a75565b610625565b6101a07fb19546dff01e856fb3f010c267a7b1c60363cf8a4664e21cc89c26224620214e81565b60007fffffffff0000000000000000000000000000000000000000000000000000000082167f7965db0b00000000000000000000000000000000000000000000000000000000148061037257507f01ffc9a7000000000000000000000000000000000000000000000000000000007fffffffff000000000000000000000000000000000000000000000000000000008316145b92915050565b7fb19546dff01e856fb3f010c267a7b1c60363cf8a4664e21cc89c26224620214e6103a281610642565b6103cc7f3f483399a73bbfbc7e47cea702709b2441abfc4e8152100709ca14556e3213038461064f565b506103d68261074b565b505050565b60008181526004602052604090208054606091906103f890610b42565b80601f016020809104026020016040519081016040528092919081815260200182805461042490610b42565b80156104715780601f1061044657610100808354040283529160200191610471565b820191906000526020600020905b81548152906001019060200180831161045457829003601f168201915b50505050509050919050565b60008281526020819052604090206001015461049881610642565b6104a2838361064f565b50505050565b7fb19546dff01e856fb3f010c267a7b1c60363cf8a4664e21cc89c26224620214e6104d281610642565b6104fc7fb19546dff01e856fb3f010c267a7b1c60363cf8a4664e21cc89c26224620214e8461064f565b506103d68261077f565b73ffffffffffffffffffffffffffffffffffffffff81163314610555576040517f6697b23200000000000000000000000000000000000000000000000000000000815260040160405180910390fd5b6103d682826107ab565b7fb19546dff01e856fb3f010c267a7b1c60363cf8a4664e21cc89c26224620214e61058981610642565b6103d67f3f483399a73bbfbc7e47cea702709b2441abfc4e8152100709ca14556e321303836107ab565b73ffffffffffffffffffffffffffffffffffffffff811660009081527f8d6dc8a0c022a764f10e1eed0dca6471b067ee59e69dbcc6974b74403575edc2602052604081205460ff16610372565b60008281526020819052604090206001015461061b81610642565b6104a283836107ab565b60008181526003602052604090208054606091906103f890610b42565b61064c8133610866565b50565b60008281526020818152604080832073ffffffffffffffffffffffffffffffffffffffff8516845290915281205460ff166107435760008381526020818152604080832073ffffffffffffffffffffffffffffffffffffffff86168452909152902080547fffffffffffffffffffffffffffffffffffffffffffffffffffffffffffffff001660011790556106e13390565b73ffffffffffffffffffffffffffffffffffffffff168273ffffffffffffffffffffffffffffffffffffffff16847f2f8788117e7eff1d82e926ec794901d17c78024a50270940304540a733656f0d60405160405180910390a4506001610372565b506000610372565b60015460009081526003602052604090206107668282610be5565b506001805490600061077783610cff565b919050555050565b600254600090815260046020526040902061079a8282610be5565b506002805490600061077783610cff565b60008281526020818152604080832073ffffffffffffffffffffffffffffffffffffffff8516845290915281205460ff16156107435760008381526020818152604080832073ffffffffffffffffffffffffffffffffffffffff8616808552925280832080547fffffffffffffffffffffffffffffffffffffffffffffffffffffffffffffff0016905551339286917ff6391f5c32d9c69d2a47ea670b442974b53935d1edc7fd64eb21e047a839171b9190a4506001610372565b60008281526020818152604080832073ffffffffffffffffffffffffffffffffffffffff8516845290915290205460ff166108f0576040517fe2517d3f00000000000000000000000000000000000000000000000000000000815273ffffffffffffffffffffffffffffffffffffffff821660048201526024810183905260440160405180910390fd5b5050565b60006020828403121561090657600080fd5b81357fffffffff000000000000000000000000000000000000000000000000000000008116811461093657600080fd5b9392505050565b803573ffffffffffffffffffffffffffffffffffffffff8116811461096157600080fd5b919050565b7f4e487b7100000000000000000000000000000000000000000000000000000000600052604160045260246000fd5b600080604083850312156109a857600080fd5b6109b18361093d565b9150602083013567ffffffffffffffff808211156109ce57600080fd5b818501915085601f8301126109e257600080fd5b8135818111156109f4576109f4610966565b604051601f82017fffffffffffffffffffffffffffffffffffffffffffffffffffffffffffffffe0908116603f01168101908382118183101715610a3a57610a3a610966565b81604052828152886020848701011115610a5357600080fd5b8260208601602083013760006020848301015280955050505050509250929050565b600060208284031215610a8757600080fd5b5035919050565b60006020808352835180602085015260005b81811015610abc57858101830151858201604001528201610aa0565b5060006040828601015260407fffffffffffffffffffffffffffffffffffffffffffffffffffffffffffffffe0601f8301168501019250505092915050565b60008060408385031215610b0e57600080fd5b82359150610b1e6020840161093d565b90509250929050565b600060208284031215610b3957600080fd5b6109368261093d565b600181811c90821680610b5657607f821691505b602082108103610b8f577f4e487b7100000000000000000000000000000000000000000000000000000000600052602260045260246000fd5b50919050565b601f8211156103d6576000816000526020600020601f850160051c81016020861015610bbe5750805b601f850160051c820191505b81811015610bdd57828155600101610bca565b505050505050565b815167ffffffffffffffff811115610bff57610bff610966565b610c1381610c0d8454610b42565b84610b95565b602080601f831160018114610c665760008415610c305750858301515b7fffffffffffffffffffffffffffffffffffffffffffffffffffffffffffffffff600386901b1c1916600185901b178555610bdd565b6000858152602081207fffffffffffffffffffffffffffffffffffffffffffffffffffffffffffffffe08616915b82811015610cb357888601518255948401946001909101908401610c94565b5085821015610cef57878501517fffffffffffffffffffffffffffffffffffffffffffffffffffffffffffffffff600388901b60f8161c191681555b5050505050600190811b01905550565b60007fffffffffffffffffffffffffffffffffffffffffffffffffffffffffffffffff8203610d57577f4e487b7100000000000000000000000000000000000000000000000000000000600052601160045260246000fd5b506001019056fea264697066735822122042ade873eb011fc8cadf5e27abf1b42a33c5e08fa2a3dbdd79678be210ae3d3064736f6c63430008170033",
    "linkReferences": {}
  },
  "methodIdentifiers": {
    "DEFAULT_ADMIN_ROLE()": "a217fddf",
    "OPERATOR_ROLE()": "f5b541a6",
    "SUBSCRIBER_ROLE()": "b3551122",
    "addProviderAndKey(address,bytes)": "33887d8e",
    "addSubscriberAndKey(address,bytes)": "1ba6c445",
    "getProviderKey(uint256)": "20c30f08",
    "getRoleAdmin(bytes32)": "248a9ca3",
    "getSubscriberKey(uint256)": "de335053",
    "grantRole(bytes32,address)": "2f2ff15d",
    "hasRole(bytes32,address)": "91d14854",
    "isSubscriber(address)": "c4804ef0",
    "nextProviderId()": "51a8dbcf",
    "nextSubscriberId()": "8d505f9e",
    "removeSubscriber(address)": "627c34ad",
    "renounceRole(bytes32,address)": "36568abe",
    "revokeRole(bytes32,address)": "d547741f",
    "supportsInterface(bytes4)": "01ffc9a7"
  },
  "id": 33
}