{
  "abi": [
    {
      "type": "constructor",
      "inputs": [
        {
          "name": "operator",
          "type": "address",
          "internalType": "address"
        }
      ],
      "stateMutability": "nonpayable"
    },
    {
      "type": "function",
      "name": "DEFAULT_ADMIN_ROLE",
      "inputs": [],
      "outputs": [
        {
          "name": "",
          "type": "bytes32",
          "internalType": "bytes32"
        }
      ],
      "stateMutability": "view"
    },
    {
      "type": "function",
      "name": "OPERATOR_ROLE",
      "inputs": [],
      "outputs": [
        {
          "name": "",
          "type": "bytes32",
          "internalType": "bytes32"
        }
      ],
      "stateMutability": "view"
    },
    {
      "type": "function",
      "name": "allowAsset",
      "inputs": [
        {
          "name": "asset",
          "type": "address",
          "internalType": "address"
        }
      ],
      "outputs": [],
      "stateMutability": "nonpayable"
    },
    {
      "type": "function",
      "name": "cancelWithdrawal",
      "inputs": [
        {
          "name": "asset",
          "type": "address",
          "internalType": "address"
        }
      ],
      "outputs": [],
      "stateMutability": "nonpayable"
    },
    {
      "type": "function",
      "name": "checkBalance",
      "inputs": [
        {
          "name": "asset",
          "type": "address",
          "internalType": "address"
        }
      ],
      "outputs": [
        {
          "name": "",
          "type": "uint256",
          "internalType": "uint256"
        }
      ],
      "stateMutability": "view"
    },
    {
      "type": "function",
      "name": "checkBalance",
      "inputs": [
        {
          "name": "subscriber",
          "type": "address",
          "internalType": "address"
        },
        {
          "name": "asset",
          "type": "address",
          "internalType": "address"
        }
      ],
      "outputs": [
        {
          "name": "",
          "type": "uint256",
          "internalType": "uint256"
        }
      ],
      "stateMutability": "view"
    },
    {
      "type": "function",
      "name": "checkWithdrawalRequest",
      "inputs": [
        {
          "name": "subscriber",
          "type": "address",
          "internalType": "address"
        },
        {
          "name": "asset",
          "type": "address",
          "internalType": "address"
        }
      ],
      "outputs": [
        {
          "name": "",
          "type": "uint256",
          "internalType": "uint256"
        }
      ],
      "stateMutability": "view"
    },
    {
      "type": "function",
      "name": "claim",
      "inputs": [
        {
          "name": "nonce",
          "type": "uint256",
          "internalType": "uint256"
        },
        {
          "name": "asset",
          "type": "address",
          "internalType": "address"
        },
        {
          "name": "amount",
          "type": "uint256",
          "internalType": "uint256"
        },
        {
          "name": "signature",
          "type": "bytes",
          "internalType": "bytes"
        }
      ],
      "outputs": [],
      "stateMutability": "nonpayable"
    },
    {
      "type": "function",
      "name": "completeWithdrawal",
      "inputs": [
        {
          "name": "asset",
          "type": "address",
          "internalType": "address"
        }
      ],
      "outputs": [],
      "stateMutability": "nonpayable"
    },
    {
      "type": "function",
      "name": "deposit",
      "inputs": [
        {
          "name": "_asset",
          "type": "address",
          "internalType": "address"
        },
        {
          "name": "amount",
          "type": "uint256",
          "internalType": "uint256"
        }
      ],
      "outputs": [],
      "stateMutability": "nonpayable"
    },
    {
      "type": "function",
      "name": "disallowAsset",
      "inputs": [
        {
          "name": "asset",
          "type": "address",
          "internalType": "address"
        }
      ],
      "outputs": [],
      "stateMutability": "nonpayable"
    },
    {
      "type": "function",
      "name": "getRoleAdmin",
      "inputs": [
        {
          "name": "role",
          "type": "bytes32",
          "internalType": "bytes32"
        }
      ],
      "outputs": [
        {
          "name": "",
          "type": "bytes32",
          "internalType": "bytes32"
        }
      ],
      "stateMutability": "view"
    },
    {
      "type": "function",
      "name": "grantRole",
      "inputs": [
        {
          "name": "role",
          "type": "bytes32",
          "internalType": "bytes32"
        },
        {
          "name": "account",
          "type": "address",
          "internalType": "address"
        }
      ],
      "outputs": [],
      "stateMutability": "nonpayable"
    },
    {
      "type": "function",
      "name": "hasRole",
      "inputs": [
        {
          "name": "role",
          "type": "bytes32",
          "internalType": "bytes32"
        },
        {
          "name": "account",
          "type": "address",
          "internalType": "address"
        }
      ],
      "outputs": [
        {
          "name": "",
          "type": "bool",
          "internalType": "bool"
        }
      ],
      "stateMutability": "view"
    },
    {
      "type": "function",
      "name": "initiateWithdrawal",
      "inputs": [
        {
          "name": "asset",
          "type": "address",
          "internalType": "address"
        }
      ],
      "outputs": [],
      "stateMutability": "nonpayable"
    },
    {
      "type": "function",
      "name": "isAssetAllowed",
      "inputs": [
        {
          "name": "asset",
          "type": "address",
          "internalType": "address"
        }
      ],
      "outputs": [
        {
          "name": "",
          "type": "bool",
          "internalType": "bool"
        }
      ],
      "stateMutability": "view"
    },
    {
      "type": "function",
      "name": "isNonceUsed",
      "inputs": [
        {
          "name": "subscriber",
          "type": "address",
          "internalType": "address"
        },
        {
          "name": "nonce",
          "type": "uint256",
          "internalType": "uint256"
        }
      ],
      "outputs": [
        {
          "name": "",
          "type": "bool",
          "internalType": "bool"
        }
      ],
      "stateMutability": "view"
    },
    {
      "type": "function",
      "name": "renounceRole",
      "inputs": [
        {
          "name": "role",
          "type": "bytes32",
          "internalType": "bytes32"
        },
        {
          "name": "callerConfirmation",
          "type": "address",
          "internalType": "address"
        }
      ],
      "outputs": [],
      "stateMutability": "nonpayable"
    },
    {
      "type": "function",
      "name": "revokeRole",
      "inputs": [
        {
          "name": "role",
          "type": "bytes32",
          "internalType": "bytes32"
        },
        {
          "name": "account",
          "type": "address",
          "internalType": "address"
        }
      ],
      "outputs": [],
      "stateMutability": "nonpayable"
    },
    {
      "type": "function",
      "name": "supportsInterface",
      "inputs": [
        {
          "name": "interfaceId",
          "type": "bytes4",
          "internalType": "bytes4"
        }
      ],
      "outputs": [
        {
          "name": "",
          "type": "bool",
          "internalType": "bool"
        }
      ],
      "stateMutability": "view"
    },
    {
      "type": "function",
      "name": "updateWithdrawalWaitPeriod",
      "inputs": [
        {
          "name": "newWaitPeriod",
          "type": "uint256",
          "internalType": "uint256"
        }
      ],
      "outputs": [],
      "stateMutability": "nonpayable"
    },
    {
      "type": "function",
      "name": "withdrawalWaitPeriod",
      "inputs": [],
      "outputs": [
        {
          "name": "",
          "type": "uint256",
          "internalType": "uint256"
        }
      ],
      "stateMutability": "view"
    },
    {
      "type": "event",
      "name": "RoleAdminChanged",
      "inputs": [
        {
          "name": "role",
          "type": "bytes32",
          "indexed": true,
          "internalType": "bytes32"
        },
        {
          "name": "previousAdminRole",
          "type": "bytes32",
          "indexed": true,
          "internalType": "bytes32"
        },
        {
          "name": "newAdminRole",
          "type": "bytes32",
          "indexed": true,
          "internalType": "bytes32"
        }
      ],
      "anonymous": false
    },
    {
      "type": "event",
      "name": "RoleGranted",
      "inputs": [
        {
          "name": "role",
          "type": "bytes32",
          "indexed": true,
          "internalType": "bytes32"
        },
        {
          "name": "account",
          "type": "address",
          "indexed": true,
          "internalType": "address"
        },
        {
          "name": "sender",
          "type": "address",
          "indexed": true,
          "internalType": "address"
        }
      ],
      "anonymous": false
    },
    {
      "type": "event",
      "name": "RoleRevoked",
      "inputs": [
        {
          "name": "role",
          "type": "bytes32",
          "indexed": true,
          "internalType": "bytes32"
        },
        {
          "name": "account",
          "type": "address",
          "indexed": true,
          "internalType": "address"
        },
        {
          "name": "sender",
          "type": "address",
          "indexed": true,
          "internalType": "address"
        }
      ],
      "anonymous": false
    },
    {
      "type": "error",
      "name": "AccessControlBadConfirmation",
      "inputs": []
    },
    {
      "type": "error",
      "name": "AccessControlUnauthorizedAccount",
      "inputs": [
        {
          "name": "account",
          "type": "address",
          "internalType": "address"
        },
        {
          "name": "neededRole",
          "type": "bytes32",
          "internalType": "bytes32"
        }
      ]
    },
    {
      "type": "error",
      "name": "AddressEmptyCode",
      "inputs": [
        {
          "name": "target",
          "type": "address",
          "internalType": "address"
        }
      ]
    },
    {
      "type": "error",
      "name": "AddressInsufficientBalance",
      "inputs": [
        {
          "name": "account",
          "type": "address",
          "internalType": "address"
        }
      ]
    },
    {
      "type": "error",
      "name": "FailedInnerCall",
      "inputs": []
    },
    {
      "type": "error",
      "name": "Payments__allowAsset_assetAlreadyAllowed",
      "inputs": []
    },
    {
      "type": "error",
      "name": "Payments__cancelWithdrawal_noOpenRequest",
      "inputs": []
    },
    {
      "type": "error",
      "name": "Payments__claim_insufficientFundsInAccount",
      "inputs": []
    },
    {
      "type": "error",
      "name": "Payments__claim_invalidSignature",
      "inputs": []
    },
    {
      "type": "error",
      "name": "Payments__claim_nonceAlreadyUsed",
      "inputs": []
    },
    {
      "type": "error",
      "name": "Payments__completeWithdrawal_noOpenRequest",
      "inputs": []
    },
    {
      "type": "error",
      "name": "Payments__completeWithdrawal_waitPeriodNotElapsed",
      "inputs": []
    },
    {
      "type": "error",
      "name": "Payments__deposit_assetNotSupported",
      "inputs": []
    },
    {
      "type": "error",
      "name": "Payments__deposit_incorrectAmountTransferred",
      "inputs": []
    },
    {
      "type": "error",
      "name": "Payments__deposit_insufficientFunds",
      "inputs": []
    },
    {
      "type": "error",
      "name": "Payments__deposit_spendingNotApproved",
      "inputs": []
    },
    {
      "type": "error",
      "name": "Payments__disallowAsset_assetAlreadyNotAllowed",
      "inputs": []
    },
    {
      "type": "error",
      "name": "Payments__initiateWithdrawal_accountEmpty",
      "inputs": []
    },
    {
      "type": "error",
      "name": "Payments__updateWithdrawalWaitPeriod_lessThanMin",
      "inputs": []
    },
    {
      "type": "error",
      "name": "SafeERC20FailedOperation",
      "inputs": [
        {
          "name": "token",
          "type": "address",
          "internalType": "address"
        }
      ]
    }
  ],
  "bytecode": {
    "object": "0x6080604052620151806005553480156200001857600080fd5b5060405162001b3a38038062001b3a8339810160408190526200003b916200012c565b620000486000336200007d565b50620000757fb19546dff01e856fb3f010c267a7b1c60363cf8a4664e21cc89c26224620214e826200007d565b50506200015e565b6000828152602081815260408083206001600160a01b038516845290915281205460ff1662000122576000838152602081815260408083206001600160a01b03861684529091529020805460ff19166001179055620000d93390565b6001600160a01b0316826001600160a01b0316847f2f8788117e7eff1d82e926ec794901d17c78024a50270940304540a733656f0d60405160405180910390a450600162000126565b5060005b92915050565b6000602082840312156200013f57600080fd5b81516001600160a01b03811681146200015757600080fd5b9392505050565b6119cc806200016e6000396000f3fe608060405234801561001057600080fd5b50600436106101825760003560e01c80637eeb1773116100d8578063a013b1e71161008c578063cab7e8eb11610066578063cab7e8eb146103fd578063d547741f14610443578063f5b541a61461045657600080fd5b8063a013b1e7146103cf578063a217fddf146103e2578063b4389a00146103ea57600080fd5b806393cedc14116100bd57806393cedc141461037a5780639469bf8f1461038357806399016142146103bc57600080fd5b80637eeb17731461032357806391d148541461033657600080fd5b80633e0db8691161013a5780635f515226116101145780635f515226146102875780636dbaf9ee146102ca57806377b76ec3146102dd57600080fd5b80633e0db8691461021b57806347e7ef241461022e57806355bf0c731461024157600080fd5b8063248a9ca31161016b578063248a9ca3146101c45780632f2ff15d146101f557806336568abe1461020857600080fd5b806301ffc9a7146101875780632298d849146101af575b600080fd5b61019a610195366004611696565b61047d565b60405190151581526020015b60405180910390f35b6101c26101bd366004611701565b610516565b005b6101e76101d236600461171c565b60009081526020819052604090206001015490565b6040519081526020016101a6565b6101c2610203366004611735565b6105ec565b6101c2610216366004611735565b610617565b6101c2610229366004611701565b610675565b6101c261023c366004611761565b610714565b6101e761024f36600461178b565b73ffffffffffffffffffffffffffffffffffffffff918216600090815260046020908152604080832093909416825291909152205490565b6101e7610295366004611701565b33600090815260026020908152604080832073ffffffffffffffffffffffffffffffffffffffff949094168352929052205490565b6101c26102d8366004611701565b610ad4565b6101e76102eb36600461178b565b73ffffffffffffffffffffffffffffffffffffffff918216600090815260026020908152604080832093909416825291909152205490565b6101c2610331366004611701565b610bed565b61019a610344366004611735565b60009182526020828152604080842073ffffffffffffffffffffffffffffffffffffffff93909316845291905290205460ff1690565b6101e760055481565b61019a610391366004611701565b73ffffffffffffffffffffffffffffffffffffffff1660009081526001602052604090205460ff1690565b6101c26103ca3660046117e4565b610c8c565b6101c26103dd366004611701565b610ea5565b6101e7600081565b6101c26103f836600461171c565b610f82565b61019a61040b366004611761565b73ffffffffffffffffffffffffffffffffffffffff919091166000908152600360209081526040808320938352929052205460ff1690565b6101c2610451366004611735565b610fef565b6101e77fb19546dff01e856fb3f010c267a7b1c60363cf8a4664e21cc89c26224620214e81565b60007fffffffff0000000000000000000000000000000000000000000000000000000082167f7965db0b00000000000000000000000000000000000000000000000000000000148061051057507f01ffc9a7000000000000000000000000000000000000000000000000000000007fffffffff000000000000000000000000000000000000000000000000000000008316145b92915050565b7fb19546dff01e856fb3f010c267a7b1c60363cf8a4664e21cc89c26224620214e61054081611014565b73ffffffffffffffffffffffffffffffffffffffff821660009081526001602052604090205460ff1661059f576040517f7bf42a5600000000000000000000000000000000000000000000000000000000815260040160405180910390fd5b5073ffffffffffffffffffffffffffffffffffffffff16600090815260016020526040902080547fffffffffffffffffffffffffffffffffffffffffffffffffffffffffffffff00169055565b60008281526020819052604090206001015461060781611014565b6106118383611021565b50505050565b73ffffffffffffffffffffffffffffffffffffffff81163314610666576040517f6697b23200000000000000000000000000000000000000000000000000000000815260040160405180910390fd5b610670828261111d565b505050565b33600090815260046020908152604080832073ffffffffffffffffffffffffffffffffffffffff8516845290915281205490036106de576040517f5809f4f500000000000000000000000000000000000000000000000000000000815260040160405180910390fd5b33600090815260046020908152604080832073ffffffffffffffffffffffffffffffffffffffff94909416835292905290812055565b73ffffffffffffffffffffffffffffffffffffffff8216600090815260016020526040902054339060ff16610775576040517f7100943c00000000000000000000000000000000000000000000000000000000815260040160405180910390fd5b6040517f70a0823100000000000000000000000000000000000000000000000000000000815273ffffffffffffffffffffffffffffffffffffffff8281166004830152849184918316906370a0823190602401602060405180830381865afa1580156107e5573d6000803e3d6000fd5b505050506040513d601f19601f8201168201806040525081019061080991906118d7565b1015610841576040517fe575ce8c00000000000000000000000000000000000000000000000000000000815260040160405180910390fd5b6040517fdd62ed3e00000000000000000000000000000000000000000000000000000000815273ffffffffffffffffffffffffffffffffffffffff838116600483015230602483015284919083169063dd62ed3e90604401602060405180830381865afa1580156108b6573d6000803e3d6000fd5b505050506040513d601f19601f820116820180604052508101906108da91906118d7565b1015610912576040517fa18698c200000000000000000000000000000000000000000000000000000000815260040160405180910390fd5b6040517f70a0823100000000000000000000000000000000000000000000000000000000815230600482015260009073ffffffffffffffffffffffffffffffffffffffff8316906370a0823190602401602060405180830381865afa15801561097f573d6000803e3d6000fd5b505050506040513d601f19601f820116820180604052508101906109a391906118d7565b90506109b1828430876111d8565b6040517f70a082310000000000000000000000000000000000000000000000000000000081523060048201528490829073ffffffffffffffffffffffffffffffffffffffff8516906370a0823190602401602060405180830381865afa158015610a1f573d6000803e3d6000fd5b505050506040513d601f19601f82011682018060405250810190610a4391906118d7565b610a4d919061191f565b14610a84576040517f93cd96a100000000000000000000000000000000000000000000000000000000815260040160405180910390fd5b73ffffffffffffffffffffffffffffffffffffffff808416600090815260026020908152604080832093891683529290529081208054869290610ac8908490611932565b90915550505050505050565b33600090815260046020908152604080832073ffffffffffffffffffffffffffffffffffffffff8516845290915281205490819003610b3f576040517f4f9d713500000000000000000000000000000000000000000000000000000000815260040160405180910390fd5b600554610b4c824261191f565b1015610b84576040517f682b917d00000000000000000000000000000000000000000000000000000000815260040160405180910390fd5b33600081815260046020908152604080832073ffffffffffffffffffffffffffffffffffffffff871680855290835281842084905593835260028252808320938352929052908120805491829190610bdc838061191f565b909155506106709050833383611261565b33600090815260026020908152604080832073ffffffffffffffffffffffffffffffffffffffff851684529091528120549003610c56576040517f995b31ca00000000000000000000000000000000000000000000000000000000815260040160405180910390fd5b33600090815260046020908152604080832073ffffffffffffffffffffffffffffffffffffffff94909416835292905220429055565b6040517fffffffffffffffffffffffffffffffffffffffff00000000000000000000000033606081811b831660208501526034840188905286901b909116605483015260688201849052906000906088016040516020818303038152906040528051906020012090506000610d01828561129f565b73ffffffffffffffffffffffffffffffffffffffff811660009081526003602090815260408083208b845290915290205490915060ff1615610d6f576040517fcb64301000000000000000000000000000000000000000000000000000000000815260040160405180910390fd5b73ffffffffffffffffffffffffffffffffffffffff80821660008181526003602090815260408083208c8452825280832080547fffffffffffffffffffffffffffffffffffffffffffffffffffffffffffffff0016600117905592825260028152828220938a1682529290925281205490819003610e19576040517f1a99fe0c00000000000000000000000000000000000000000000000000000000815260040160405180910390fd5b85811015610e53576040517ff8e4874100000000000000000000000000000000000000000000000000000000815260040160405180910390fd5b610e5d868261191f565b73ffffffffffffffffffffffffffffffffffffffff8084166000908152600260209081526040808320938c1683529290522055610e9b878588611261565b5050505050505050565b7fb19546dff01e856fb3f010c267a7b1c60363cf8a4664e21cc89c26224620214e610ecf81611014565b73ffffffffffffffffffffffffffffffffffffffff821660009081526001602052604090205460ff1615610f2f576040517f2f96f48e00000000000000000000000000000000000000000000000000000000815260040160405180910390fd5b5073ffffffffffffffffffffffffffffffffffffffff16600090815260016020819052604090912080547fffffffffffffffffffffffffffffffffffffffffffffffffffffffffffffff00169091179055565b7fb19546dff01e856fb3f010c267a7b1c60363cf8a4664e21cc89c26224620214e610fac81611014565b62015180821015610fe9576040517f9c81e8e300000000000000000000000000000000000000000000000000000000815260040160405180910390fd5b50600555565b60008281526020819052604090206001015461100a81611014565b610611838361111d565b61101e813361133c565b50565b60008281526020818152604080832073ffffffffffffffffffffffffffffffffffffffff8516845290915281205460ff166111155760008381526020818152604080832073ffffffffffffffffffffffffffffffffffffffff86168452909152902080547fffffffffffffffffffffffffffffffffffffffffffffffffffffffffffffff001660011790556110b33390565b73ffffffffffffffffffffffffffffffffffffffff168273ffffffffffffffffffffffffffffffffffffffff16847f2f8788117e7eff1d82e926ec794901d17c78024a50270940304540a733656f0d60405160405180910390a4506001610510565b506000610510565b60008281526020818152604080832073ffffffffffffffffffffffffffffffffffffffff8516845290915281205460ff16156111155760008381526020818152604080832073ffffffffffffffffffffffffffffffffffffffff8616808552925280832080547fffffffffffffffffffffffffffffffffffffffffffffffffffffffffffffff0016905551339286917ff6391f5c32d9c69d2a47ea670b442974b53935d1edc7fd64eb21e047a839171b9190a4506001610510565b60405173ffffffffffffffffffffffffffffffffffffffff84811660248301528381166044830152606482018390526106119186918216906323b872dd906084015b604051602081830303815290604052915060e01b6020820180517bffffffffffffffffffffffffffffffffffffffffffffffffffffffff83818316178352505050506113cb565b60405173ffffffffffffffffffffffffffffffffffffffff83811660248301526044820183905261067091859182169063a9059cbb9060640161121a565b6000806000806112ae85611461565b6040805160008152602081018083528b905260ff8516918101919091526060810183905260808101829052929550909350915060019060a0016020604051602081039080840390855afa158015611309573d6000803e3d6000fd5b50506040517fffffffffffffffffffffffffffffffffffffffffffffffffffffffffffffffe00151979650505050505050565b60008281526020818152604080832073ffffffffffffffffffffffffffffffffffffffff8516845290915290205460ff166113c7576040517fe2517d3f00000000000000000000000000000000000000000000000000000000815273ffffffffffffffffffffffffffffffffffffffff82166004820152602481018390526044015b60405180910390fd5b5050565b60006113ed73ffffffffffffffffffffffffffffffffffffffff8416836114ed565b905080516000141580156114125750808060200190518101906114109190611945565b155b15610670576040517f5274afe700000000000000000000000000000000000000000000000000000000815273ffffffffffffffffffffffffffffffffffffffff841660048201526024016113be565b600080600083516041146114d1576040517f08c379a000000000000000000000000000000000000000000000000000000000815260206004820152601b60248201527f496e636f7272656374207369676e6174757265206c656e6774682e000000000060448201526064016113be565b5050506020810151604082015160609092015160001a92909190565b60606114fb83836000611502565b9392505050565b606081471015611540576040517fcd7860590000000000000000000000000000000000000000000000000000000081523060048201526024016113be565b6000808573ffffffffffffffffffffffffffffffffffffffff1684866040516115699190611967565b60006040518083038185875af1925050503d80600081146115a6576040519150601f19603f3d011682016040523d82523d6000602084013e6115ab565b606091505b50915091506115bb8683836115c5565b9695505050505050565b6060826115da576115d582611654565b6114fb565b81511580156115fe575073ffffffffffffffffffffffffffffffffffffffff84163b155b1561164d576040517f9996b31500000000000000000000000000000000000000000000000000000000815273ffffffffffffffffffffffffffffffffffffffff851660048201526024016113be565b50806114fb565b8051156116645780518082602001fd5b6040517f1425ea4200000000000000000000000000000000000000000000000000000000815260040160405180910390fd5b6000602082840312156116a857600080fd5b81357fffffffff00000000000000000000000000000000000000000000000000000000811681146114fb57600080fd5b803573ffffffffffffffffffffffffffffffffffffffff811681146116fc57600080fd5b919050565b60006020828403121561171357600080fd5b6114fb826116d8565b60006020828403121561172e57600080fd5b5035919050565b6000806040838503121561174857600080fd5b82359150611758602084016116d8565b90509250929050565b6000806040838503121561177457600080fd5b61177d836116d8565b946020939093013593505050565b6000806040838503121561179e57600080fd5b6117a7836116d8565b9150611758602084016116d8565b7f4e487b7100000000000000000000000000000000000000000000000000000000600052604160045260246000fd5b600080600080608085870312156117fa57600080fd5b8435935061180a602086016116d8565b925060408501359150606085013567ffffffffffffffff8082111561182e57600080fd5b818701915087601f83011261184257600080fd5b813581811115611854576118546117b5565b604051601f82017fffffffffffffffffffffffffffffffffffffffffffffffffffffffffffffffe0908116603f0116810190838211818310171561189a5761189a6117b5565b816040528281528a60208487010111156118b357600080fd5b82602086016020830137600060208483010152809550505050505092959194509250565b6000602082840312156118e957600080fd5b5051919050565b7f4e487b7100000000000000000000000000000000000000000000000000000000600052601160045260246000fd5b81810381811115610510576105106118f0565b80820180821115610510576105106118f0565b60006020828403121561195757600080fd5b815180151581146114fb57600080fd5b6000825160005b81811015611988576020818601810151858301520161196e565b50600092019182525091905056fea26469706673582212203eb9cea3a27584529b7a2ea88c9d66ed14f91e0cb5577526c84e2ec1901261e864736f6c63430008170033",
    "linkReferences": {}
  },
  "methodIdentifiers": {
    "DEFAULT_ADMIN_ROLE()": "a217fddf",
    "OPERATOR_ROLE()": "f5b541a6",
    "allowAsset(address)": "a013b1e7",
    "cancelWithdrawal(address)": "3e0db869",
    "checkBalance(address)": "5f515226",
    "checkBalance(address,address)": "77b76ec3",
    "checkWithdrawalRequest(address,address)": "55bf0c73",
    "claim(uint256,address,uint256,bytes)": "99016142",
    "completeWithdrawal(address)": "6dbaf9ee",
    "deposit(address,uint256)": "47e7ef24",
    "disallowAsset(address)": "2298d849",
    "getRoleAdmin(bytes32)": "248a9ca3",
    "grantRole(bytes32,address)": "2f2ff15d",
    "hasRole(bytes32,address)": "91d14854",
    "initiateWithdrawal(address)": "7eeb1773",
    "isAssetAllowed(address)": "9469bf8f",
    "isNonceUsed(address,uint256)": "cab7e8eb",
    "renounceRole(bytes32,address)": "36568abe",
    "revokeRole(bytes32,address)": "d547741f",
    "supportsInterface(bytes4)": "01ffc9a7",
    "updateWithdrawalWaitPeriod(uint256)": "b4389a00",
    "withdrawalWaitPeriod()": "93cedc14"
  },
  "id": 32
}