{
    "abi": [
        {
            "inputs": [],
            "stateMutability": "nonpayable",
            "type": "constructor"
        },
        {
            "anonymous": false,
            "inputs": [
                {
                    "indexed": true,
                    "internalType": "bytes32",
                    "name": "role",
                    "type": "bytes32"
                },
                {
                    "indexed": true,
                    "internalType": "bytes32",
                    "name": "previousAdminRole",
                    "type": "bytes32"
                },
                {
                    "indexed": true,
                    "internalType": "bytes32",
                    "name": "newAdminRole",
                    "type": "bytes32"
                }
            ],
            "name": "RoleAdminChanged",
            "type": "event"
        },
        {
            "anonymous": false,
            "inputs": [
                {
                    "indexed": true,
                    "internalType": "bytes32",
                    "name": "role",
                    "type": "bytes32"
                },
                {
                    "indexed": true,
                    "internalType": "address",
                    "name": "account",
                    "type": "address"
                },
                {
                    "indexed": true,
                    "internalType": "address",
                    "name": "sender",
                    "type": "address"
                }
            ],
            "name": "RoleGranted",
            "type": "event"
        },
        {
            "anonymous": false,
            "inputs": [
                {
                    "indexed": true,
                    "internalType": "bytes32",
                    "name": "role",
                    "type": "bytes32"
                },
                {
                    "indexed": true,
                    "internalType": "address",
                    "name": "account",
                    "type": "address"
                },
                {
                    "indexed": true,
                    "internalType": "address",
                    "name": "sender",
                    "type": "address"
                }
            ],
            "name": "RoleRevoked",
            "type": "event"
        },
        {
            "inputs": [],
            "name": "DEFAULT_ADMIN_ROLE",
            "outputs": [
                {
                    "internalType": "bytes32",
                    "name": "",
                    "type": "bytes32"
                }
            ],
            "stateMutability": "view",
            "type": "function"
        },
        {
            "inputs": [],
            "name": "OPERATOR_ROLE",
            "outputs": [
                {
                    "internalType": "bytes32",
                    "name": "",
                    "type": "bytes32"
                }
            ],
            "stateMutability": "view",
            "type": "function"
        },
        {
            "inputs": [],
            "name": "SUBSCRIBER_ROLE",
            "outputs": [
                {
                    "internalType": "bytes32",
                    "name": "",
                    "type": "bytes32"
                }
            ],
            "stateMutability": "view",
            "type": "function"
        },
        {
            "inputs": [
                {
                    "internalType": "address",
                    "name": "newProvider",
                    "type": "address"
                },
                {
                    "internalType": "bytes",
                    "name": "publicKey",
                    "type": "bytes"
                }
            ],
            "name": "addProviderAndKey",
            "outputs": [],
            "stateMutability": "nonpayable",
            "type": "function"
        },
        {
            "inputs": [
                {
                    "internalType": "address",
                    "name": "newSubscriber",
                    "type": "address"
                },
                {
                    "internalType": "bytes",
                    "name": "publicKey",
                    "type": "bytes"
                }
            ],
            "name": "addSubscriberAndKey",
            "outputs": [],
            "stateMutability": "nonpayable",
            "type": "function"
        },
        {
            "inputs": [
                {
                    "internalType": "uint256",
                    "name": "providerIndex",
                    "type": "uint256"
                }
            ],
            "name": "getProviderKey",
            "outputs": [
                {
                    "internalType": "bytes",
                    "name": "publicKey",
                    "type": "bytes"
                }
            ],
            "stateMutability": "view",
            "type": "function"
        },
        {
            "inputs": [
                {
                    "internalType": "bytes32",
                    "name": "role",
                    "type": "bytes32"
                }
            ],
            "name": "getRoleAdmin",
            "outputs": [
                {
                    "internalType": "bytes32",
                    "name": "",
                    "type": "bytes32"
                }
            ],
            "stateMutability": "view",
            "type": "function"
        },
        {
            "inputs": [
                {
                    "internalType": "uint256",
                    "name": "subscriberIndex",
                    "type": "uint256"
                }
            ],
            "name": "getSubscriberKey",
            "outputs": [
                {
                    "internalType": "bytes",
                    "name": "publicKey",
                    "type": "bytes"
                }
            ],
            "stateMutability": "view",
            "type": "function"
        },
        {
            "inputs": [
                {
                    "internalType": "bytes32",
                    "name": "role",
                    "type": "bytes32"
                },
                {
                    "internalType": "address",
                    "name": "account",
                    "type": "address"
                }
            ],
            "name": "grantRole",
            "outputs": [],
            "stateMutability": "nonpayable",
            "type": "function"
        },
        {
            "inputs": [
                {
                    "internalType": "bytes32",
                    "name": "role",
                    "type": "bytes32"
                },
                {
                    "internalType": "address",
                    "name": "account",
                    "type": "address"
                }
            ],
            "name": "hasRole",
            "outputs": [
                {
                    "internalType": "bool",
                    "name": "",
                    "type": "bool"
                }
            ],
            "stateMutability": "view",
            "type": "function"
        },
        {
            "inputs": [
                {
                    "internalType": "address",
                    "name": "subscriber",
                    "type": "address"
                }
            ],
            "name": "isSubscriber",
            "outputs": [
                {
                    "internalType": "bool",
                    "name": "isSubscribed",
                    "type": "bool"
                }
            ],
            "stateMutability": "view",
            "type": "function"
        },
        {
            "inputs": [],
            "name": "nextProviderId",
            "outputs": [
                {
                    "internalType": "uint256",
                    "name": "",
                    "type": "uint256"
                }
            ],
            "stateMutability": "view",
            "type": "function"
        },
        {
            "inputs": [],
            "name": "nextSubscriberId",
            "outputs": [
                {
                    "internalType": "uint256",
                    "name": "",
                    "type": "uint256"
                }
            ],
            "stateMutability": "view",
            "type": "function"
        },
        {
            "inputs": [
                {
                    "internalType": "address",
                    "name": "subscriber",
                    "type": "address"
                }
            ],
            "name": "removeSubscriber",
            "outputs": [],
            "stateMutability": "nonpayable",
            "type": "function"
        },
        {
            "inputs": [
                {
                    "internalType": "bytes32",
                    "name": "role",
                    "type": "bytes32"
                },
                {
                    "internalType": "address",
                    "name": "account",
                    "type": "address"
                }
            ],
            "name": "renounceRole",
            "outputs": [],
            "stateMutability": "nonpayable",
            "type": "function"
        },
        {
            "inputs": [
                {
                    "internalType": "bytes32",
                    "name": "role",
                    "type": "bytes32"
                },
                {
                    "internalType": "address",
                    "name": "account",
                    "type": "address"
                }
            ],
            "name": "revokeRole",
            "outputs": [],
            "stateMutability": "nonpayable",
            "type": "function"
        },
        {
            "inputs": [
                {
                    "internalType": "bytes4",
                    "name": "interfaceId",
                    "type": "bytes4"
                }
            ],
            "name": "supportsInterface",
            "outputs": [
                {
                    "internalType": "bool",
                    "name": "",
                    "type": "bool"
                }
            ],
            "stateMutability": "view",
            "type": "function"
        }
    ],
    "bytecode": {
        "object": "0x60806040526000600155600060025534801561001a57600080fd5b50610026600033610055565b6100507f97667070c54ef182b0f5858b034beac1b6f3089aa2d3188bb1e8929f4fa9b92933610055565b6100f4565b6000828152602081815260408083206001600160a01b038516845290915290205460ff166100f0576000828152602081815260408083206001600160a01b03851684529091529020805460ff191660011790556100af3390565b6001600160a01b0316816001600160a01b0316837f2f8788117e7eff1d82e926ec794901d17c78024a50270940304540a733656f0d60405160405180910390a45b5050565b611190806101036000396000f3fe608060405234801561001057600080fd5b506004361061011b5760003560e01c8063627c34ad116100b2578063b355112211610081578063d547741f11610066578063d547741f14610292578063de335053146102a5578063f5b541a6146102b857600080fd5b8063b355112214610258578063c4804ef01461027f57600080fd5b8063627c34ad146101f05780638d505f9e1461020357806391d148541461020c578063a217fddf1461025057600080fd5b80632f2ff15d116100ee5780632f2ff15d146101ae57806333887d8e146101c157806336568abe146101d457806351a8dbcf146101e757600080fd5b806301ffc9a7146101205780631ba6c4451461014857806320c30f081461015d578063248a9ca31461017d575b600080fd5b61013361012e366004610bce565b6102df565b60405190151581526020015b60405180910390f35b61015b610156366004610c68565b610378565b005b61017061016b366004610d48565b6103da565b60405161013f9190610dcf565b6101a061018b366004610d48565b60009081526020819052604090206001015490565b60405190815260200161013f565b61015b6101bc366004610de2565b61047c565b61015b6101cf366004610c68565b6104a1565b61015b6101e2366004610de2565b6104fe565b6101a060025481565b61015b6101fe366004610e0e565b6105b6565b6101a060015481565b61013361021a366004610de2565b60009182526020828152604080842073ffffffffffffffffffffffffffffffffffffffff93909316845291905290205460ff1690565b6101a0600081565b6101a07f3f483399a73bbfbc7e47cea702709b2441abfc4e8152100709ca14556e32130381565b61013361028d366004610e0e565b61060a565b61015b6102a0366004610de2565b610657565b6101706102b3366004610d48565b61067c565b6101a07f97667070c54ef182b0f5858b034beac1b6f3089aa2d3188bb1e8929f4fa9b92981565b60007fffffffff0000000000000000000000000000000000000000000000000000000082167f7965db0b00000000000000000000000000000000000000000000000000000000148061037257507f01ffc9a7000000000000000000000000000000000000000000000000000000007fffffffff000000000000000000000000000000000000000000000000000000008316145b92915050565b7f97667070c54ef182b0f5858b034beac1b6f3089aa2d3188bb1e8929f4fa9b9296103a281610699565b6103cc7f3f483399a73bbfbc7e47cea702709b2441abfc4e8152100709ca14556e321303846106a6565b6103d582610796565b505050565b60008181526004602052604090208054606091906103f790610e29565b80601f016020809104026020016040519081016040528092919081815260200182805461042390610e29565b80156104705780601f1061044557610100808354040283529160200191610470565b820191906000526020600020905b81548152906001019060200180831161045357829003601f168201915b50505050509050919050565b60008281526020819052604090206001015461049781610699565b6103d583836106a6565b7f97667070c54ef182b0f5858b034beac1b6f3089aa2d3188bb1e8929f4fa9b9296104cb81610699565b6104f57f97667070c54ef182b0f5858b034beac1b6f3089aa2d3188bb1e8929f4fa9b929846106a6565b6103d5826107ca565b73ffffffffffffffffffffffffffffffffffffffff811633146105a8576040517f08c379a000000000000000000000000000000000000000000000000000000000815260206004820152602f60248201527f416363657373436f6e74726f6c3a2063616e206f6e6c792072656e6f756e636560448201527f20726f6c657320666f722073656c66000000000000000000000000000000000060648201526084015b60405180910390fd5b6105b282826107f6565b5050565b7f97667070c54ef182b0f5858b034beac1b6f3089aa2d3188bb1e8929f4fa9b9296105e081610699565b6105b27f3f483399a73bbfbc7e47cea702709b2441abfc4e8152100709ca14556e321303836107f6565b73ffffffffffffffffffffffffffffffffffffffff811660009081527f8d6dc8a0c022a764f10e1eed0dca6471b067ee59e69dbcc6974b74403575edc2602052604081205460ff16610372565b60008281526020819052604090206001015461067281610699565b6103d583836107f6565b60008181526003602052604090208054606091906103f790610e29565b6106a381336108ad565b50565b60008281526020818152604080832073ffffffffffffffffffffffffffffffffffffffff8516845290915290205460ff166105b25760008281526020818152604080832073ffffffffffffffffffffffffffffffffffffffff85168452909152902080547fffffffffffffffffffffffffffffffffffffffffffffffffffffffffffffff001660011790556107383390565b73ffffffffffffffffffffffffffffffffffffffff168173ffffffffffffffffffffffffffffffffffffffff16837f2f8788117e7eff1d82e926ec794901d17c78024a50270940304540a733656f0d60405160405180910390a45050565b60015460009081526003602052604090206107b18282610eca565b50600180549060006107c283611013565b919050555050565b60025460009081526004602052604090206107e58282610eca565b50600280549060006107c283611013565b60008281526020818152604080832073ffffffffffffffffffffffffffffffffffffffff8516845290915290205460ff16156105b25760008281526020818152604080832073ffffffffffffffffffffffffffffffffffffffff8516808552925280832080547fffffffffffffffffffffffffffffffffffffffffffffffffffffffffffffff0016905551339285917ff6391f5c32d9c69d2a47ea670b442974b53935d1edc7fd64eb21e047a839171b9190a45050565b60008281526020818152604080832073ffffffffffffffffffffffffffffffffffffffff8516845290915290205460ff166105b2576108eb81610965565b6108f6836020610984565b60405160200161090792919061104b565b604080517fffffffffffffffffffffffffffffffffffffffffffffffffffffffffffffffe0818403018152908290527f08c379a000000000000000000000000000000000000000000000000000000000825261059f91600401610dcf565b606061037273ffffffffffffffffffffffffffffffffffffffff831660145b606060006109938360026110cc565b61099e9060026110e3565b67ffffffffffffffff8111156109b6576109b6610c39565b6040519080825280601f01601f1916602001820160405280156109e0576020820181803683370190505b5090507f300000000000000000000000000000000000000000000000000000000000000081600081518110610a1757610a176110f6565b60200101907effffffffffffffffffffffffffffffffffffffffffffffffffffffffffffff1916908160001a9053507f780000000000000000000000000000000000000000000000000000000000000081600181518110610a7a57610a7a6110f6565b60200101907effffffffffffffffffffffffffffffffffffffffffffffffffffffffffffff1916908160001a9053506000610ab68460026110cc565b610ac19060016110e3565b90505b6001811115610b5e577f303132333435363738396162636465660000000000000000000000000000000085600f1660108110610b0257610b026110f6565b1a60f81b828281518110610b1857610b186110f6565b60200101907effffffffffffffffffffffffffffffffffffffffffffffffffffffffffffff1916908160001a90535060049490941c93610b5781611125565b9050610ac4565b508315610bc7576040517f08c379a000000000000000000000000000000000000000000000000000000000815260206004820181905260248201527f537472696e67733a20686578206c656e67746820696e73756666696369656e74604482015260640161059f565b9392505050565b600060208284031215610be057600080fd5b81357fffffffff0000000000000000000000000000000000000000000000000000000081168114610bc757600080fd5b803573ffffffffffffffffffffffffffffffffffffffff81168114610c3457600080fd5b919050565b7f4e487b7100000000000000000000000000000000000000000000000000000000600052604160045260246000fd5b60008060408385031215610c7b57600080fd5b610c8483610c10565b9150602083013567ffffffffffffffff80821115610ca157600080fd5b818501915085601f830112610cb557600080fd5b813581811115610cc757610cc7610c39565b604051601f82017fffffffffffffffffffffffffffffffffffffffffffffffffffffffffffffffe0908116603f01168101908382118183101715610d0d57610d0d610c39565b81604052828152886020848701011115610d2657600080fd5b8260208601602083013760006020848301015280955050505050509250929050565b600060208284031215610d5a57600080fd5b5035919050565b60005b83811015610d7c578181015183820152602001610d64565b50506000910152565b60008151808452610d9d816020860160208601610d61565b601f017fffffffffffffffffffffffffffffffffffffffffffffffffffffffffffffffe0169290920160200192915050565b602081526000610bc76020830184610d85565b60008060408385031215610df557600080fd5b82359150610e0560208401610c10565b90509250929050565b600060208284031215610e2057600080fd5b610bc782610c10565b600181811c90821680610e3d57607f821691505b602082108103610e76577f4e487b7100000000000000000000000000000000000000000000000000000000600052602260045260246000fd5b50919050565b601f8211156103d557600081815260208120601f850160051c81016020861015610ea35750805b601f850160051c820191505b81811015610ec257828155600101610eaf565b505050505050565b815167ffffffffffffffff811115610ee457610ee4610c39565b610ef881610ef28454610e29565b84610e7c565b602080601f831160018114610f4b5760008415610f155750858301515b7fffffffffffffffffffffffffffffffffffffffffffffffffffffffffffffffff600386901b1c1916600185901b178555610ec2565b6000858152602081207fffffffffffffffffffffffffffffffffffffffffffffffffffffffffffffffe08616915b82811015610f9857888601518255948401946001909101908401610f79565b5085821015610fd457878501517fffffffffffffffffffffffffffffffffffffffffffffffffffffffffffffffff600388901b60f8161c191681555b5050505050600190811b01905550565b7f4e487b7100000000000000000000000000000000000000000000000000000000600052601160045260246000fd5b60007fffffffffffffffffffffffffffffffffffffffffffffffffffffffffffffffff820361104457611044610fe4565b5060010190565b7f416363657373436f6e74726f6c3a206163636f756e7420000000000000000000815260008351611083816017850160208801610d61565b7f206973206d697373696e6720726f6c652000000000000000000000000000000060179184019182015283516110c0816028840160208801610d61565b01602801949350505050565b808202811582820484141761037257610372610fe4565b8082018082111561037257610372610fe4565b7f4e487b7100000000000000000000000000000000000000000000000000000000600052603260045260246000fd5b60008161113457611134610fe4565b507fffffffffffffffffffffffffffffffffffffffffffffffffffffffffffffffff019056fea26469706673582212205d0002d4f23bed33fc768fcd11dbe6a0c6e773e9fcdd04ff8afa9133814d52bb64736f6c63430008140033",
        "linkReferences": {}
    },
    "methodIdentifiers": {
        "DEFAULT_ADMIN_ROLE()": "a217fddf",
        "OPERATOR_ROLE()": "f5b541a6",
        "SUBSCRIBER_ROLE()": "b3551122",
        "addProviderAndKey(address,bytes)": "33887d8e",
        "addSubscriberAndKey(address,bytes)": "1ba6c445",
        "getProviderKey(uint256)": "20c30f08",
        "getRoleAdmin(bytes32)": "248a9ca3",
        "getSubscriberKey(uint256)": "de335053",
        "grantRole(bytes32,address)": "2f2ff15d",
        "hasRole(bytes32,address)": "91d14854",
        "isSubscriber(address)": "c4804ef0",
        "nextProviderId()": "51a8dbcf",
        "nextSubscriberId()": "8d505f9e",
        "removeSubscriber(address)": "627c34ad",
        "renounceRole(bytes32,address)": "36568abe",
        "revokeRole(bytes32,address)": "d547741f",
        "supportsInterface(bytes4)": "01ffc9a7"
    },
    "id": 22
}